{"contracts/MockRouter.sol":{"MockRouter":{"abi":[{"inputs":[],"stateMutability":"nonpayable","type":"constructor"},{"anonymous":false,"inputs":[{"indexed":true,"internalType":"address","name":"token","type":"address"},{"indexed":false,"internalType":"uint256","name":"amountToken","type":"uint256"},{"indexed":false,"internalType":"uint256","name":"amountETH","type":"uint256"}],"name":"LiquidityAdded","type":"event"},{"anonymous":false,"inputs":[{"indexed":true,"internalType":"address","name":"tokenIn","type":"address"},{"indexed":true,"internalType":"address","name":"tokenOut","type":"address"},{"indexed":false,"internalType":"uint256","name":"amountIn","type":"uint256"},{"indexed":false,"internalType":"uint256","name":"amountOut","type":"uint256"}],"name":"Swap","type":"event"},{"inputs":[],"name":"MOCK_LIQUIDITY","outputs":[{"internalType":"uint256","name":"","type":"uint256"}],"stateMutability":"view","type":"function"},{"inputs":[],"name":"MOCK_SLIPPAGE","outputs":[{"internalType":"uint256","name":"","type":"uint256"}],"stateMutability":"view","type":"function"},{"inputs":[],"name":"WETH","outputs":[{"internalType":"address","name":"","type":"address"}],"stateMutability":"pure","type":"function"},{"inputs":[{"internalType":"address","name":"token","type":"address"},{"internalType":"uint256","name":"amountTokenDesired","type":"uint256"},{"internalType":"uint256","name":"_amountTokenMin","type":"uint256"},{"internalType":"uint256","name":"_amountETHMin","type":"uint256"},{"internalType":"address","name":"_to","type":"address"},{"internalType":"uint256","name":"deadline","type":"uint256"}],"name":"addLiquidityETH","outputs":[{"internalType":"uint256","name":"amountToken","type":"uint256"},{"internalType":"uint256","name":"amountETH","type":"uint256"},{"internalType":"uint256","name":"liquidity","type":"uint256"}],"stateMutability":"payable","type":"function"},{"inputs":[],"name":"factory","outputs":[{"internalType":"address","name":"","type":"address"}],"stateMutability":"pure","type":"function"},{"inputs":[{"internalType":"uint256","name":"amountOut","type":"uint256"},{"internalType":"address[]","name":"path","type":"address[]"}],"name":"getAmountsIn","outputs":[{"internalType":"uint256[]","name":"amounts","type":"uint256[]"}],"stateMutability":"view","type":"function"},{"inputs":[{"internalType":"uint256","name":"amountIn","type":"uint256"},{"internalType":"address[]","name":"path","type":"address[]"}],"name":"getAmountsOut","outputs":[{"internalType":"uint256[]","name":"amounts","type":"uint256[]"}],"stateMutability":"view","type":"function"},{"inputs":[{"internalType":"address","name":"token","type":"address"}],"name":"getTokenPrice","outputs":[{"internalType":"uint256","name":"","type":"uint256"}],"stateMutability":"view","type":"function"},{"inputs":[{"internalType":"address","name":"token","type":"address"},{"internalType":"uint256","name":"amount","type":"uint256"}],"name":"recoverTokens","outputs":[],"stateMutability":"nonpayable","type":"function"},{"inputs":[{"internalType":"address","name":"token","type":"address"},{"internalType":"uint256","name":"price","type":"uint256"}],"name":"setTokenPrice","outputs":[],"stateMutability":"nonpayable","type":"function"},{"inputs":[{"internalType":"uint256","name":"amountIn","type":"uint256"},{"internalType":"uint256","name":"amountOutMin","type":"uint256"},{"internalType":"address[]","name":"path","type":"address[]"},{"internalType":"address","name":"to","type":"address"},{"internalType":"uint256","name":"deadline","type":"uint256"}],"name":"swapExactTokensForETHSupportingFeeOnTransferTokens","outputs":[],"stateMutability":"nonpayable","type":"function"},{"inputs":[{"internalType":"address","name":"","type":"address"}],"name":"tokenPrices","outputs":[{"internalType":"uint256","name":"","type":"uint256"}],"stateMutability":"view","type":"function"},{"stateMutability":"payable","type":"receive"}],"evm":{"bytecode":{"linkReferences":{},"object":"608060405234801561001057600080fd5b5060006020819052670de0b6b3a76400007ff043c50fe795c69f30b8ff78b84032dc53a9d87ca283ae10a1dacfbb648e83ef557322222222222222222222222222222222222222229052681043561a88293000007f56136bdb02b44e818120154143c922d9485e19e5b7288e7176da184391d4457c55610d31806100956000396000f3fe6080604052600436106100ab5760003560e01c8063ad5c464811610064578063ad5c4648146101b5578063c45a0155146101f0578063d02641a014610217578063d06ca61f1461024d578063de3b22fb1461026d578063f305d7191461028357600080fd5b8063069c9fae146100b75780631f00ca74146100d8578063204120bc1461010e578063431f63c914610149578063791ac9471461018057806386c476d2146101a057600080fd5b366100b257005b600080fd5b3480156100c357600080fd5b506100d66100d2366004610a1b565b5050565b005b3480156100e457600080fd5b506100f86100f3366004610a91565b6102b1565b6040516101059190610add565b60405180910390f35b34801561011a57600080fd5b5061013b610129366004610b21565b60006020819052908152604090205481565b604051908152602001610105565b34801561015557600080fd5b506100d6610164366004610a1b565b6001600160a01b03909116600090815260208190526040902055565b34801561018c57600080fd5b506100d661019b366004610b3c565b61041e565b3480156101ac57600080fd5b5061013b603281565b3480156101c157600080fd5b507322222222222222222222222222222222222222225b6040516001600160a01b039091168152602001610105565b3480156101fc57600080fd5b507311111111111111111111111111111111111111116101d8565b34801561022357600080fd5b5061013b610232366004610b21565b6001600160a01b031660009081526020819052604090205490565b34801561025957600080fd5b506100f8610268366004610a91565b610609565b34801561027957600080fd5b5061013b6103e881565b610296610291366004610bac565b610750565b60408051938452602084019290925290820152606001610105565b606060028210156102dd5760405162461bcd60e51b81526004016102d490610c04565b60405180910390fd5b8167ffffffffffffffff8111156102f6576102f6610c2a565b60405190808252806020026020018201604052801561031f578160200160208202803683370190505b509050838161032f600185610c56565b8151811061033f5761033f610c69565b60209081029190910101526000610357600184610c56565b90505b8015610415576103dc82828151811061037557610375610c69565b6020026020010151858560018561038c9190610c56565b81811061039b5761039b610c69565b90506020020160208101906103b09190610b21565b8686858181106103c2576103c2610c69565b90506020020160208101906103d79190610b21565b610874565b826103e8600184610c56565b815181106103f8576103f8610c69565b60209081029190910101528061040d81610c7f565b91505061035a565b505b9392505050565b600283101561043f5760405162461bcd60e51b81526004016102d490610c04565b428110156104815760405162461bcd60e51b815260206004820152600f60248201526e111958591b1a5b99481c185cdcd959608a1b60448201526064016102d4565b6001600160a01b0382166104cb5760405162461bcd60e51b8152602060048201526011602482015270125b9d985b1a59081c9958da5c1a595b9d607a1b60448201526064016102d4565b600061050a878686808060200260200160405190810160405280939291908181526020018383602002808284376000920191909152506108ff92505050565b90508581101561055c5760405162461bcd60e51b815260206004820152601a60248201527f496e73756666696369656e74206f757470757420616d6f756e7400000000000060448201526064016102d4565b8484600181811061056f5761056f610c69565b90506020020160208101906105849190610b21565b6001600160a01b0316858560008181106105a0576105a0610c69565b90506020020160208101906105b59190610b21565b6001600160a01b03167ffa2dda1cc1b86e41239702756b13effbc1a092b5c57e3ad320fbe4f3b13fe23589846040516105f8929190918252602082015260400190565b60405180910390a350505050505050565b6060600282101561062c5760405162461bcd60e51b81526004016102d490610c04565b8167ffffffffffffffff81111561064557610645610c2a565b60405190808252806020026020018201604052801561066e578160200160208202803683370190505b509050838160008151811061068557610685610c69565b602090810291909101015260015b8281101561041557610721826106aa600184610c56565b815181106106ba576106ba610c69565b602002602001015185856001856106d19190610c56565b8181106106e0576106e0610c69565b90506020020160208101906106f59190610b21565b86868581811061070757610707610c69565b905060200201602081019061071c9190610b21565b610980565b82828151811061073357610733610c69565b60209081029190910101528061074881610c96565b915050610693565b60008060008034116107945760405162461bcd60e51b815260206004820152600d60248201526c09aeae6e840e6cadcc8408aa89609b1b60448201526064016102d4565b600088116107d75760405162461bcd60e51b815260206004820152601060248201526f4d7573742073656e6420746f6b656e7360801b60448201526064016102d4565b428410156108195760405162461bcd60e51b815260206004820152600f60248201526e111958591b1a5b99481c185cdcd959608a1b60448201526064016102d4565b5050604080518781523460208201819052889350916103e8916001600160a01b038b16917fac1d76749e5447b7b16f5ab61447e1bd502f3bb4807af3b28e620d1700a6ee45910160405180910390a296509650969350505050565b6001600160a01b038083166000908152602081905260408082205492841682528120549091908115806108a5575080155b156108b4578592505050610417565b6000826108c18389610caf565b6108cb9190610cc6565b905060006127106108dd603284610caf565b6108e79190610cc6565b90506108f38183610ce8565b98975050505050505050565b600082815b600184516109129190610c56565b811015610976576109628285838151811061092f5761092f610c69565b6020026020010151868460016109459190610ce8565b8151811061095557610955610c69565b6020026020010151610980565b91508061096e81610c96565b915050610904565b5090505b92915050565b6001600160a01b038083166000908152602081905260408082205492841682528120549091908115806109b1575080155b156109c0578592505050610417565b6000816109cd8489610caf565b6109d79190610cc6565b905060006127106109e9603284610caf565b6109f39190610cc6565b90506108f38183610c56565b80356001600160a01b0381168114610a1657600080fd5b919050565b60008060408385031215610a2e57600080fd5b610a37836109ff565b946020939093013593505050565b60008083601f840112610a5757600080fd5b50813567ffffffffffffffff811115610a6f57600080fd5b6020830191508360208260051b8501011115610a8a57600080fd5b9250929050565b600080600060408486031215610aa657600080fd5b83359250602084013567ffffffffffffffff811115610ac457600080fd5b610ad086828701610a45565b9497909650939450505050565b6020808252825182820181905260009190848201906040850190845b81811015610b1557835183529284019291840191600101610af9565b50909695505050505050565b600060208284031215610b3357600080fd5b610417826109ff565b60008060008060008060a08789031215610b5557600080fd5b8635955060208701359450604087013567ffffffffffffffff811115610b7a57600080fd5b610b8689828a01610a45565b9095509350610b999050606088016109ff565b9150608087013590509295509295509295565b60008060008060008060c08789031215610bc557600080fd5b610bce876109ff565b9550602087013594506040870135935060608701359250610bf1608088016109ff565b915060a087013590509295509295509295565b6020808252600c908201526b092dcecc2d8d2c840e0c2e8d60a31b604082015260600190565b634e487b7160e01b600052604160045260246000fd5b634e487b7160e01b600052601160045260246000fd5b8181038181111561097a5761097a610c40565b634e487b7160e01b600052603260045260246000fd5b600081610c8e57610c8e610c40565b506000190190565b600060018201610ca857610ca8610c40565b5060010190565b808202811582820484141761097a5761097a610c40565b600082610ce357634e487b7160e01b600052601260045260246000fd5b500490565b8082018082111561097a5761097a610c4056fea26469706673582212206e87499c36fa848a38ae506e9c94448a7693e9270884f1e6b42a55d5969a190464736f6c63430008140033","opcodes":"PUSH1 0x80 PUSH1 0x40 MSTORE CALLVALUE DUP1 ISZERO PUSH2 0x10 JUMPI PUSH1 0x0 DUP1 REVERT JUMPDEST POP PUSH1 0x0 PUSH1 0x20 DUP2 SWAP1 MSTORE PUSH8 0xDE0B6B3A7640000 PUSH32 0xF043C50FE795C69F30B8FF78B84032DC53A9D87CA283AE10A1DACFBB648E83EF SSTORE PUSH20 0x2222222222222222222222222222222222222222 SWAP1 MSTORE PUSH9 0x1043561A8829300000 PUSH32 0x56136BDB02B44E818120154143C922D9485E19E5B7288E7176DA184391D4457C SSTORE PUSH2 0xD31 DUP1 PUSH2 0x95 PUSH1 0x0 CODECOPY PUSH1 0x0 RETURN INVALID PUSH1 0x80 PUSH1 0x40 MSTORE PUSH1 0x4 CALLDATASIZE LT PUSH2 0xAB JUMPI PUSH1 0x0 CALLDATALOAD PUSH1 0xE0 SHR DUP1 PUSH4 0xAD5C4648 GT PUSH2 0x64 JUMPI DUP1 PUSH4 0xAD5C4648 EQ PUSH2 0x1B5 JUMPI DUP1 PUSH4 0xC45A0155 EQ PUSH2 0x1F0 JUMPI DUP1 PUSH4 0xD02641A0 EQ PUSH2 0x217 JUMPI DUP1 PUSH4 0xD06CA61F EQ PUSH2 0x24D JUMPI DUP1 PUSH4 0xDE3B22FB EQ PUSH2 0x26D JUMPI DUP1 PUSH4 0xF305D719 EQ PUSH2 0x283 JUMPI PUSH1 0x0 DUP1 REVERT JUMPDEST DUP1 PUSH4 0x69C9FAE EQ PUSH2 0xB7 JUMPI DUP1 PUSH4 0x1F00CA74 EQ PUSH2 0xD8 JUMPI DUP1 PUSH4 0x204120BC EQ PUSH2 0x10E JUMPI DUP1 PUSH4 0x431F63C9 EQ PUSH2 0x149 JUMPI DUP1 PUSH4 0x791AC947 EQ PUSH2 0x180 JUMPI DUP1 PUSH4 0x86C476D2 EQ PUSH2 0x1A0 JUMPI PUSH1 0x0 DUP1 REVERT JUMPDEST CALLDATASIZE PUSH2 0xB2 JUMPI STOP JUMPDEST PUSH1 0x0 DUP1 REVERT JUMPDEST CALLVALUE DUP1 ISZERO PUSH2 0xC3 JUMPI PUSH1 0x0 DUP1 REVERT JUMPDEST POP PUSH2 0xD6 PUSH2 0xD2 CALLDATASIZE PUSH1 0x4 PUSH2 0xA1B JUMP JUMPDEST POP POP JUMP JUMPDEST STOP JUMPDEST CALLVALUE DUP1 ISZERO PUSH2 0xE4 JUMPI PUSH1 0x0 DUP1 REVERT JUMPDEST POP PUSH2 0xF8 PUSH2 0xF3 CALLDATASIZE PUSH1 0x4 PUSH2 0xA91 JUMP JUMPDEST PUSH2 0x2B1 JUMP JUMPDEST PUSH1 0x40 MLOAD PUSH2 0x105 SWAP2 SWAP1 PUSH2 0xADD JUMP JUMPDEST PUSH1 0x40 MLOAD DUP1 SWAP2 SUB SWAP1 RETURN JUMPDEST CALLVALUE DUP1 ISZERO PUSH2 0x11A JUMPI PUSH1 0x0 DUP1 REVERT JUMPDEST POP PUSH2 0x13B PUSH2 0x129 CALLDATASIZE PUSH1 0x4 PUSH2 0xB21 JUMP JUMPDEST PUSH1 0x0 PUSH1 0x20 DUP2 SWAP1 MSTORE SWAP1 DUP2 MSTORE PUSH1 0x40 SWAP1 KECCAK256 SLOAD DUP2 JUMP JUMPDEST PUSH1 0x40 MLOAD SWAP1 DUP2 MSTORE PUSH1 0x20 ADD PUSH2 0x105 JUMP JUMPDEST CALLVALUE DUP1 ISZERO PUSH2 0x155 JUMPI PUSH1 0x0 DUP1 REVERT JUMPDEST POP PUSH2 0xD6 PUSH2 0x164 CALLDATASIZE PUSH1 0x4 PUSH2 0xA1B JUMP JUMPDEST PUSH1 0x1 PUSH1 0x1 PUSH1 0xA0 SHL SUB SWAP1 SWAP2 AND PUSH1 0x0 SWAP1 DUP2 MSTORE PUSH1 0x20 DUP2 SWAP1 MSTORE PUSH1 0x40 SWAP1 KECCAK256 SSTORE JUMP JUMPDEST CALLVALUE DUP1 ISZERO PUSH2 0x18C JUMPI PUSH1 0x0 DUP1 REVERT JUMPDEST POP PUSH2 0xD6 PUSH2 0x19B CALLDATASIZE PUSH1 0x4 PUSH2 0xB3C JUMP JUMPDEST PUSH2 0x41E JUMP JUMPDEST CALLVALUE DUP1 ISZERO PUSH2 0x1AC JUMPI PUSH1 0x0 DUP1 REVERT JUMPDEST POP PUSH2 0x13B PUSH1 0x32 DUP2 JUMP JUMPDEST CALLVALUE DUP1 ISZERO PUSH2 0x1C1 JUMPI PUSH1 0x0 DUP1 REVERT JUMPDEST POP PUSH20 0x2222222222222222222222222222222222222222 JUMPDEST PUSH1 0x40 MLOAD PUSH1 0x1 PUSH1 0x1 PUSH1 0xA0 SHL SUB SWAP1 SWAP2 AND DUP2 MSTORE PUSH1 0x20 ADD PUSH2 0x105 JUMP JUMPDEST CALLVALUE DUP1 ISZERO PUSH2 0x1FC JUMPI PUSH1 0x0 DUP1 REVERT JUMPDEST POP PUSH20 0x1111111111111111111111111111111111111111 PUSH2 0x1D8 JUMP JUMPDEST CALLVALUE DUP1 ISZERO PUSH2 0x223 JUMPI PUSH1 0x0 DUP1 REVERT JUMPDEST POP PUSH2 0x13B PUSH2 0x232 CALLDATASIZE PUSH1 0x4 PUSH2 0xB21 JUMP JUMPDEST PUSH1 0x1 PUSH1 0x1 PUSH1 0xA0 SHL SUB AND PUSH1 0x0 SWAP1 DUP2 MSTORE PUSH1 0x20 DUP2 SWAP1 MSTORE PUSH1 0x40 SWAP1 KECCAK256 SLOAD SWAP1 JUMP JUMPDEST CALLVALUE DUP1 ISZERO PUSH2 0x259 JUMPI PUSH1 0x0 DUP1 REVERT JUMPDEST POP PUSH2 0xF8 PUSH2 0x268 CALLDATASIZE PUSH1 0x4 PUSH2 0xA91 JUMP JUMPDEST PUSH2 0x609 JUMP JUMPDEST CALLVALUE DUP1 ISZERO PUSH2 0x279 JUMPI PUSH1 0x0 DUP1 REVERT JUMPDEST POP PUSH2 0x13B PUSH2 0x3E8 DUP2 JUMP JUMPDEST PUSH2 0x296 PUSH2 0x291 CALLDATASIZE PUSH1 0x4 PUSH2 0xBAC JUMP JUMPDEST PUSH2 0x750 JUMP JUMPDEST PUSH1 0x40 DUP1 MLOAD SWAP4 DUP5 MSTORE PUSH1 0x20 DUP5 ADD SWAP3 SWAP1 SWAP3 MSTORE SWAP1 DUP3 ADD MSTORE PUSH1 0x60 ADD PUSH2 0x105 JUMP JUMPDEST PUSH1 0x60 PUSH1 0x2 DUP3 LT ISZERO PUSH2 0x2DD JUMPI PUSH1 0x40 MLOAD PUSH3 0x461BCD PUSH1 0xE5 SHL DUP2 MSTORE PUSH1 0x4 ADD PUSH2 0x2D4 SWAP1 PUSH2 0xC04 JUMP JUMPDEST PUSH1 0x40 MLOAD DUP1 SWAP2 SUB SWAP1 REVERT JUMPDEST DUP2 PUSH8 0xFFFFFFFFFFFFFFFF DUP2 GT ISZERO PUSH2 0x2F6 JUMPI PUSH2 0x2F6 PUSH2 0xC2A JUMP JUMPDEST PUSH1 0x40 MLOAD SWAP1 DUP1 DUP3 MSTORE DUP1 PUSH1 0x20 MUL PUSH1 0x20 ADD DUP3 ADD PUSH1 0x40 MSTORE DUP1 ISZERO PUSH2 0x31F JUMPI DUP2 PUSH1 0x20 ADD PUSH1 0x20 DUP3 MUL DUP1 CALLDATASIZE DUP4 CALLDATACOPY ADD SWAP1 POP JUMPDEST POP SWAP1 POP DUP4 DUP2 PUSH2 0x32F PUSH1 0x1 DUP6 PUSH2 0xC56 JUMP JUMPDEST DUP2 MLOAD DUP2 LT PUSH2 0x33F JUMPI PUSH2 0x33F PUSH2 0xC69 JUMP JUMPDEST PUSH1 0x20 SWAP1 DUP2 MUL SWAP2 SWAP1 SWAP2 ADD ADD MSTORE PUSH1 0x0 PUSH2 0x357 PUSH1 0x1 DUP5 PUSH2 0xC56 JUMP JUMPDEST SWAP1 POP JUMPDEST DUP1 ISZERO PUSH2 0x415 JUMPI PUSH2 0x3DC DUP3 DUP3 DUP2 MLOAD DUP2 LT PUSH2 0x375 JUMPI PUSH2 0x375 PUSH2 0xC69 JUMP JUMPDEST PUSH1 0x20 MUL PUSH1 0x20 ADD ADD MLOAD DUP6 DUP6 PUSH1 0x1 DUP6 PUSH2 0x38C SWAP2 SWAP1 PUSH2 0xC56 JUMP JUMPDEST DUP2 DUP2 LT PUSH2 0x39B JUMPI PUSH2 0x39B PUSH2 0xC69 JUMP JUMPDEST SWAP1 POP PUSH1 0x20 MUL ADD PUSH1 0x20 DUP2 ADD SWAP1 PUSH2 0x3B0 SWAP2 SWAP1 PUSH2 0xB21 JUMP JUMPDEST DUP7 DUP7 DUP6 DUP2 DUP2 LT PUSH2 0x3C2 JUMPI PUSH2 0x3C2 PUSH2 0xC69 JUMP JUMPDEST SWAP1 POP PUSH1 0x20 MUL ADD PUSH1 0x20 DUP2 ADD SWAP1 PUSH2 0x3D7 SWAP2 SWAP1 PUSH2 0xB21 JUMP JUMPDEST PUSH2 0x874 JUMP JUMPDEST DUP3 PUSH2 0x3E8 PUSH1 0x1 DUP5 PUSH2 0xC56 JUMP JUMPDEST DUP2 MLOAD DUP2 LT PUSH2 0x3F8 JUMPI PUSH2 0x3F8 PUSH2 0xC69 JUMP JUMPDEST PUSH1 0x20 SWAP1 DUP2 MUL SWAP2 SWAP1 SWAP2 ADD ADD MSTORE DUP1 PUSH2 0x40D DUP2 PUSH2 0xC7F JUMP JUMPDEST SWAP2 POP POP PUSH2 0x35A JUMP JUMPDEST POP JUMPDEST SWAP4 SWAP3 POP POP POP JUMP JUMPDEST PUSH1 0x2 DUP4 LT ISZERO PUSH2 0x43F JUMPI PUSH1 0x40 MLOAD PUSH3 0x461BCD PUSH1 0xE5 SHL DUP2 MSTORE PUSH1 0x4 ADD PUSH2 0x2D4 SWAP1 PUSH2 0xC04 JUMP JUMPDEST TIMESTAMP DUP2 LT ISZERO PUSH2 0x481 JUMPI PUSH1 0x40 MLOAD PUSH3 0x461BCD PUSH1 0xE5 SHL DUP2 MSTORE PUSH1 0x20 PUSH1 0x4 DUP3 ADD MSTORE PUSH1 0xF PUSH1 0x24 DUP3 ADD MSTORE PUSH15 0x111958591B1A5B99481C185CDCD959 PUSH1 0x8A SHL PUSH1 0x44 DUP3 ADD MSTORE PUSH1 0x64 ADD PUSH2 0x2D4 JUMP JUMPDEST PUSH1 0x1 PUSH1 0x1 PUSH1 0xA0 SHL SUB DUP3 AND PUSH2 0x4CB JUMPI PUSH1 0x40 MLOAD PUSH3 0x461BCD PUSH1 0xE5 SHL DUP2 MSTORE PUSH1 0x20 PUSH1 0x4 DUP3 ADD MSTORE PUSH1 0x11 PUSH1 0x24 DUP3 ADD MSTORE PUSH17 0x125B9D985B1A59081C9958DA5C1A595B9D PUSH1 0x7A SHL PUSH1 0x44 DUP3 ADD MSTORE PUSH1 0x64 ADD PUSH2 0x2D4 JUMP JUMPDEST PUSH1 0x0 PUSH2 0x50A DUP8 DUP7 DUP7 DUP1 DUP1 PUSH1 0x20 MUL PUSH1 0x20 ADD PUSH1 0x40 MLOAD SWAP1 DUP2 ADD PUSH1 0x40 MSTORE DUP1 SWAP4 SWAP3 SWAP2 SWAP1 DUP2 DUP2 MSTORE PUSH1 0x20 ADD DUP4 DUP4 PUSH1 0x20 MUL DUP1 DUP3 DUP5 CALLDATACOPY PUSH1 0x0 SWAP3 ADD SWAP2 SWAP1 SWAP2 MSTORE POP PUSH2 0x8FF SWAP3 POP POP POP JUMP JUMPDEST SWAP1 POP DUP6 DUP2 LT ISZERO PUSH2 0x55C JUMPI PUSH1 0x40 MLOAD PUSH3 0x461BCD PUSH1 0xE5 SHL DUP2 MSTORE PUSH1 0x20 PUSH1 0x4 DUP3 ADD MSTORE PUSH1 0x1A PUSH1 0x24 DUP3 ADD MSTORE PUSH32 0x496E73756666696369656E74206F757470757420616D6F756E74000000000000 PUSH1 0x44 DUP3 ADD MSTORE PUSH1 0x64 ADD PUSH2 0x2D4 JUMP JUMPDEST DUP5 DUP5 PUSH1 0x1 DUP2 DUP2 LT PUSH2 0x56F JUMPI PUSH2 0x56F PUSH2 0xC69 JUMP JUMPDEST SWAP1 POP PUSH1 0x20 MUL ADD PUSH1 0x20 DUP2 ADD SWAP1 PUSH2 0x584 SWAP2 SWAP1 PUSH2 0xB21 JUMP JUMPDEST PUSH1 0x1 PUSH1 0x1 PUSH1 0xA0 SHL SUB AND DUP6 DUP6 PUSH1 0x0 DUP2 DUP2 LT PUSH2 0x5A0 JUMPI PUSH2 0x5A0 PUSH2 0xC69 JUMP JUMPDEST SWAP1 POP PUSH1 0x20 MUL ADD PUSH1 0x20 DUP2 ADD SWAP1 PUSH2 0x5B5 SWAP2 SWAP1 PUSH2 0xB21 JUMP JUMPDEST PUSH1 0x1 PUSH1 0x1 PUSH1 0xA0 SHL SUB AND PUSH32 0xFA2DDA1CC1B86E41239702756B13EFFBC1A092B5C57E3AD320FBE4F3B13FE235 DUP10 DUP5 PUSH1 0x40 MLOAD PUSH2 0x5F8 SWAP3 SWAP2 SWAP1 SWAP2 DUP3 MSTORE PUSH1 0x20 DUP3 ADD MSTORE PUSH1 0x40 ADD SWAP1 JUMP JUMPDEST PUSH1 0x40 MLOAD DUP1 SWAP2 SUB SWAP1 LOG3 POP POP POP POP POP POP POP JUMP JUMPDEST PUSH1 0x60 PUSH1 0x2 DUP3 LT ISZERO PUSH2 0x62C JUMPI PUSH1 0x40 MLOAD PUSH3 0x461BCD PUSH1 0xE5 SHL DUP2 MSTORE PUSH1 0x4 ADD PUSH2 0x2D4 SWAP1 PUSH2 0xC04 JUMP JUMPDEST DUP2 PUSH8 0xFFFFFFFFFFFFFFFF DUP2 GT ISZERO PUSH2 0x645 JUMPI PUSH2 0x645 PUSH2 0xC2A JUMP JUMPDEST PUSH1 0x40 MLOAD SWAP1 DUP1 DUP3 MSTORE DUP1 PUSH1 0x20 MUL PUSH1 0x20 ADD DUP3 ADD PUSH1 0x40 MSTORE DUP1 ISZERO PUSH2 0x66E JUMPI DUP2 PUSH1 0x20 ADD PUSH1 0x20 DUP3 MUL DUP1 CALLDATASIZE DUP4 CALLDATACOPY ADD SWAP1 POP JUMPDEST POP SWAP1 POP DUP4 DUP2 PUSH1 0x0 DUP2 MLOAD DUP2 LT PUSH2 0x685 JUMPI PUSH2 0x685 PUSH2 0xC69 JUMP JUMPDEST PUSH1 0x20 SWAP1 DUP2 MUL SWAP2 SWAP1 SWAP2 ADD ADD MSTORE PUSH1 0x1 JUMPDEST DUP3 DUP2 LT ISZERO PUSH2 0x415 JUMPI PUSH2 0x721 DUP3 PUSH2 0x6AA PUSH1 0x1 DUP5 PUSH2 0xC56 JUMP JUMPDEST DUP2 MLOAD DUP2 LT PUSH2 0x6BA JUMPI PUSH2 0x6BA PUSH2 0xC69 JUMP JUMPDEST PUSH1 0x20 MUL PUSH1 0x20 ADD ADD MLOAD DUP6 DUP6 PUSH1 0x1 DUP6 PUSH2 0x6D1 SWAP2 SWAP1 PUSH2 0xC56 JUMP JUMPDEST DUP2 DUP2 LT PUSH2 0x6E0 JUMPI PUSH2 0x6E0 PUSH2 0xC69 JUMP JUMPDEST SWAP1 POP PUSH1 0x20 MUL ADD PUSH1 0x20 DUP2 ADD SWAP1 PUSH2 0x6F5 SWAP2 SWAP1 PUSH2 0xB21 JUMP JUMPDEST DUP7 DUP7 DUP6 DUP2 DUP2 LT PUSH2 0x707 JUMPI PUSH2 0x707 PUSH2 0xC69 JUMP JUMPDEST SWAP1 POP PUSH1 0x20 MUL ADD PUSH1 0x20 DUP2 ADD SWAP1 PUSH2 0x71C SWAP2 SWAP1 PUSH2 0xB21 JUMP JUMPDEST PUSH2 0x980 JUMP JUMPDEST DUP3 DUP3 DUP2 MLOAD DUP2 LT PUSH2 0x733 JUMPI PUSH2 0x733 PUSH2 0xC69 JUMP JUMPDEST PUSH1 0x20 SWAP1 DUP2 MUL SWAP2 SWAP1 SWAP2 ADD ADD MSTORE DUP1 PUSH2 0x748 DUP2 PUSH2 0xC96 JUMP JUMPDEST SWAP2 POP POP PUSH2 0x693 JUMP JUMPDEST PUSH1 0x0 DUP1 PUSH1 0x0 DUP1 CALLVALUE GT PUSH2 0x794 JUMPI PUSH1 0x40 MLOAD PUSH3 0x461BCD PUSH1 0xE5 SHL DUP2 MSTORE PUSH1 0x20 PUSH1 0x4 DUP3 ADD MSTORE PUSH1 0xD PUSH1 0x24 DUP3 ADD MSTORE PUSH13 0x9AEAE6E840E6CADCC8408AA89 PUSH1 0x9B SHL PUSH1 0x44 DUP3 ADD MSTORE PUSH1 0x64 ADD PUSH2 0x2D4 JUMP JUMPDEST PUSH1 0x0 DUP9 GT PUSH2 0x7D7 JUMPI PUSH1 0x40 MLOAD PUSH3 0x461BCD PUSH1 0xE5 SHL DUP2 MSTORE PUSH1 0x20 PUSH1 0x4 DUP3 ADD MSTORE PUSH1 0x10 PUSH1 0x24 DUP3 ADD MSTORE PUSH16 0x4D7573742073656E6420746F6B656E73 PUSH1 0x80 SHL PUSH1 0x44 DUP3 ADD MSTORE PUSH1 0x64 ADD PUSH2 0x2D4 JUMP JUMPDEST TIMESTAMP DUP5 LT ISZERO PUSH2 0x819 JUMPI PUSH1 0x40 MLOAD PUSH3 0x461BCD PUSH1 0xE5 SHL DUP2 MSTORE PUSH1 0x20 PUSH1 0x4 DUP3 ADD MSTORE PUSH1 0xF PUSH1 0x24 DUP3 ADD MSTORE PUSH15 0x111958591B1A5B99481C185CDCD959 PUSH1 0x8A SHL PUSH1 0x44 DUP3 ADD MSTORE PUSH1 0x64 ADD PUSH2 0x2D4 JUMP JUMPDEST POP POP PUSH1 0x40 DUP1 MLOAD DUP8 DUP2 MSTORE CALLVALUE PUSH1 0x20 DUP3 ADD DUP2 SWAP1 MSTORE DUP9 SWAP4 POP SWAP2 PUSH2 0x3E8 SWAP2 PUSH1 0x1 PUSH1 0x1 PUSH1 0xA0 SHL SUB DUP12 AND SWAP2 PUSH32 0xAC1D76749E5447B7B16F5AB61447E1BD502F3BB4807AF3B28E620D1700A6EE45 SWAP2 ADD PUSH1 0x40 MLOAD DUP1 SWAP2 SUB SWAP1 LOG2 SWAP7 POP SWAP7 POP SWAP7 SWAP4 POP POP POP POP JUMP JUMPDEST PUSH1 0x1 PUSH1 0x1 PUSH1 0xA0 SHL SUB DUP1 DUP4 AND PUSH1 0x0 SWAP1 DUP2 MSTORE PUSH1 0x20 DUP2 SWAP1 MSTORE PUSH1 0x40 DUP1 DUP3 KECCAK256 SLOAD SWAP3 DUP5 AND DUP3 MSTORE DUP2 KECCAK256 SLOAD SWAP1 SWAP2 SWAP1 DUP2 ISZERO DUP1 PUSH2 0x8A5 JUMPI POP DUP1 ISZERO JUMPDEST ISZERO PUSH2 0x8B4 JUMPI DUP6 SWAP3 POP POP POP PUSH2 0x417 JUMP JUMPDEST PUSH1 0x0 DUP3 PUSH2 0x8C1 DUP4 DUP10 PUSH2 0xCAF JUMP JUMPDEST PUSH2 0x8CB SWAP2 SWAP1 PUSH2 0xCC6 JUMP JUMPDEST SWAP1 POP PUSH1 0x0 PUSH2 0x2710 PUSH2 0x8DD PUSH1 0x32 DUP5 PUSH2 0xCAF JUMP JUMPDEST PUSH2 0x8E7 SWAP2 SWAP1 PUSH2 0xCC6 JUMP JUMPDEST SWAP1 POP PUSH2 0x8F3 DUP2 DUP4 PUSH2 0xCE8 JUMP JUMPDEST SWAP9 SWAP8 POP POP POP POP POP POP POP POP JUMP JUMPDEST PUSH1 0x0 DUP3 DUP2 JUMPDEST PUSH1 0x1 DUP5 MLOAD PUSH2 0x912 SWAP2 SWAP1 PUSH2 0xC56 JUMP JUMPDEST DUP2 LT ISZERO PUSH2 0x976 JUMPI PUSH2 0x962 DUP3 DUP6 DUP4 DUP2 MLOAD DUP2 LT PUSH2 0x92F JUMPI PUSH2 0x92F PUSH2 0xC69 JUMP JUMPDEST PUSH1 0x20 MUL PUSH1 0x20 ADD ADD MLOAD DUP7 DUP5 PUSH1 0x1 PUSH2 0x945 SWAP2 SWAP1 PUSH2 0xCE8 JUMP JUMPDEST DUP2 MLOAD DUP2 LT PUSH2 0x955 JUMPI PUSH2 0x955 PUSH2 0xC69 JUMP JUMPDEST PUSH1 0x20 MUL PUSH1 0x20 ADD ADD MLOAD PUSH2 0x980 JUMP JUMPDEST SWAP2 POP DUP1 PUSH2 0x96E DUP2 PUSH2 0xC96 JUMP JUMPDEST SWAP2 POP POP PUSH2 0x904 JUMP JUMPDEST POP SWAP1 POP JUMPDEST SWAP3 SWAP2 POP POP JUMP JUMPDEST PUSH1 0x1 PUSH1 0x1 PUSH1 0xA0 SHL SUB DUP1 DUP4 AND PUSH1 0x0 SWAP1 DUP2 MSTORE PUSH1 0x20 DUP2 SWAP1 MSTORE PUSH1 0x40 DUP1 DUP3 KECCAK256 SLOAD SWAP3 DUP5 AND DUP3 MSTORE DUP2 KECCAK256 SLOAD SWAP1 SWAP2 SWAP1 DUP2 ISZERO DUP1 PUSH2 0x9B1 JUMPI POP DUP1 ISZERO JUMPDEST ISZERO PUSH2 0x9C0 JUMPI DUP6 SWAP3 POP POP POP PUSH2 0x417 JUMP JUMPDEST PUSH1 0x0 DUP2 PUSH2 0x9CD DUP5 DUP10 PUSH2 0xCAF JUMP JUMPDEST PUSH2 0x9D7 SWAP2 SWAP1 PUSH2 0xCC6 JUMP JUMPDEST SWAP1 POP PUSH1 0x0 PUSH2 0x2710 PUSH2 0x9E9 PUSH1 0x32 DUP5 PUSH2 0xCAF JUMP JUMPDEST PUSH2 0x9F3 SWAP2 SWAP1 PUSH2 0xCC6 JUMP JUMPDEST SWAP1 POP PUSH2 0x8F3 DUP2 DUP4 PUSH2 0xC56 JUMP JUMPDEST DUP1 CALLDATALOAD PUSH1 0x1 PUSH1 0x1 PUSH1 0xA0 SHL SUB DUP2 AND DUP2 EQ PUSH2 0xA16 JUMPI PUSH1 0x0 DUP1 REVERT JUMPDEST SWAP2 SWAP1 POP JUMP JUMPDEST PUSH1 0x0 DUP1 PUSH1 0x40 DUP4 DUP6 SUB SLT ISZERO PUSH2 0xA2E JUMPI PUSH1 0x0 DUP1 REVERT JUMPDEST PUSH2 0xA37 DUP4 PUSH2 0x9FF JUMP JUMPDEST SWAP5 PUSH1 0x20 SWAP4 SWAP1 SWAP4 ADD CALLDATALOAD SWAP4 POP POP POP JUMP JUMPDEST PUSH1 0x0 DUP1 DUP4 PUSH1 0x1F DUP5 ADD SLT PUSH2 0xA57 JUMPI PUSH1 0x0 DUP1 REVERT JUMPDEST POP DUP2 CALLDATALOAD PUSH8 0xFFFFFFFFFFFFFFFF DUP2 GT ISZERO PUSH2 0xA6F JUMPI PUSH1 0x0 DUP1 REVERT JUMPDEST PUSH1 0x20 DUP4 ADD SWAP2 POP DUP4 PUSH1 0x20 DUP3 PUSH1 0x5 SHL DUP6 ADD ADD GT ISZERO PUSH2 0xA8A JUMPI PUSH1 0x0 DUP1 REVERT JUMPDEST SWAP3 POP SWAP3 SWAP1 POP JUMP JUMPDEST PUSH1 0x0 DUP1 PUSH1 0x0 PUSH1 0x40 DUP5 DUP7 SUB SLT ISZERO PUSH2 0xAA6 JUMPI PUSH1 0x0 DUP1 REVERT JUMPDEST DUP4 CALLDATALOAD SWAP3 POP PUSH1 0x20 DUP5 ADD CALLDATALOAD PUSH8 0xFFFFFFFFFFFFFFFF DUP2 GT ISZERO PUSH2 0xAC4 JUMPI PUSH1 0x0 DUP1 REVERT JUMPDEST PUSH2 0xAD0 DUP7 DUP3 DUP8 ADD PUSH2 0xA45 JUMP JUMPDEST SWAP5 SWAP8 SWAP1 SWAP7 POP SWAP4 SWAP5 POP POP POP POP JUMP JUMPDEST PUSH1 0x20 DUP1 DUP3 MSTORE DUP3 MLOAD DUP3 DUP3 ADD DUP2 SWAP1 MSTORE PUSH1 0x0 SWAP2 SWAP1 DUP5 DUP3 ADD SWAP1 PUSH1 0x40 DUP6 ADD SWAP1 DUP5 JUMPDEST DUP2 DUP2 LT ISZERO PUSH2 0xB15 JUMPI DUP4 MLOAD DUP4 MSTORE SWAP3 DUP5 ADD SWAP3 SWAP2 DUP5 ADD SWAP2 PUSH1 0x1 ADD PUSH2 0xAF9 JUMP JUMPDEST POP SWAP1 SWAP7 SWAP6 POP POP POP POP POP POP JUMP JUMPDEST PUSH1 0x0 PUSH1 0x20 DUP3 DUP5 SUB SLT ISZERO PUSH2 0xB33 JUMPI PUSH1 0x0 DUP1 REVERT JUMPDEST PUSH2 0x417 DUP3 PUSH2 0x9FF JUMP JUMPDEST PUSH1 0x0 DUP1 PUSH1 0x0 DUP1 PUSH1 0x0 DUP1 PUSH1 0xA0 DUP8 DUP10 SUB SLT ISZERO PUSH2 0xB55 JUMPI PUSH1 0x0 DUP1 REVERT JUMPDEST DUP7 CALLDATALOAD SWAP6 POP PUSH1 0x20 DUP8 ADD CALLDATALOAD SWAP5 POP PUSH1 0x40 DUP8 ADD CALLDATALOAD PUSH8 0xFFFFFFFFFFFFFFFF DUP2 GT ISZERO PUSH2 0xB7A JUMPI PUSH1 0x0 DUP1 REVERT JUMPDEST PUSH2 0xB86 DUP10 DUP3 DUP11 ADD PUSH2 0xA45 JUMP JUMPDEST SWAP1 SWAP6 POP SWAP4 POP PUSH2 0xB99 SWAP1 POP PUSH1 0x60 DUP9 ADD PUSH2 0x9FF JUMP JUMPDEST SWAP2 POP PUSH1 0x80 DUP8 ADD CALLDATALOAD SWAP1 POP SWAP3 SWAP6 POP SWAP3 SWAP6 POP SWAP3 SWAP6 JUMP JUMPDEST PUSH1 0x0 DUP1 PUSH1 0x0 DUP1 PUSH1 0x0 DUP1 PUSH1 0xC0 DUP8 DUP10 SUB SLT ISZERO PUSH2 0xBC5 JUMPI PUSH1 0x0 DUP1 REVERT JUMPDEST PUSH2 0xBCE DUP8 PUSH2 0x9FF JUMP JUMPDEST SWAP6 POP PUSH1 0x20 DUP8 ADD CALLDATALOAD SWAP5 POP PUSH1 0x40 DUP8 ADD CALLDATALOAD SWAP4 POP PUSH1 0x60 DUP8 ADD CALLDATALOAD SWAP3 POP PUSH2 0xBF1 PUSH1 0x80 DUP9 ADD PUSH2 0x9FF JUMP JUMPDEST SWAP2 POP PUSH1 0xA0 DUP8 ADD CALLDATALOAD SWAP1 POP SWAP3 SWAP6 POP SWAP3 SWAP6 POP SWAP3 SWAP6 JUMP JUMPDEST PUSH1 0x20 DUP1 DUP3 MSTORE PUSH1 0xC SWAP1 DUP3 ADD MSTORE PUSH12 0x92DCECC2D8D2C840E0C2E8D PUSH1 0xA3 SHL PUSH1 0x40 DUP3 ADD MSTORE PUSH1 0x60 ADD SWAP1 JUMP JUMPDEST PUSH4 0x4E487B71 PUSH1 0xE0 SHL PUSH1 0x0 MSTORE PUSH1 0x41 PUSH1 0x4 MSTORE PUSH1 0x24 PUSH1 0x0 REVERT JUMPDEST PUSH4 0x4E487B71 PUSH1 0xE0 SHL PUSH1 0x0 MSTORE PUSH1 0x11 PUSH1 0x4 MSTORE PUSH1 0x24 PUSH1 0x0 REVERT JUMPDEST DUP2 DUP2 SUB DUP2 DUP2 GT ISZERO PUSH2 0x97A JUMPI PUSH2 0x97A PUSH2 0xC40 JUMP JUMPDEST PUSH4 0x4E487B71 PUSH1 0xE0 SHL PUSH1 0x0 MSTORE PUSH1 0x32 PUSH1 0x4 MSTORE PUSH1 0x24 PUSH1 0x0 REVERT JUMPDEST PUSH1 0x0 DUP2 PUSH2 0xC8E JUMPI PUSH2 0xC8E PUSH2 0xC40 JUMP JUMPDEST POP PUSH1 0x0 NOT ADD SWAP1 JUMP JUMPDEST PUSH1 0x0 PUSH1 0x1 DUP3 ADD PUSH2 0xCA8 JUMPI PUSH2 0xCA8 PUSH2 0xC40 JUMP JUMPDEST POP PUSH1 0x1 ADD SWAP1 JUMP JUMPDEST DUP1 DUP3 MUL DUP2 ISZERO DUP3 DUP3 DIV DUP5 EQ OR PUSH2 0x97A JUMPI PUSH2 0x97A PUSH2 0xC40 JUMP JUMPDEST PUSH1 0x0 DUP3 PUSH2 0xCE3 JUMPI PUSH4 0x4E487B71 PUSH1 0xE0 SHL PUSH1 0x0 MSTORE PUSH1 0x12 PUSH1 0x4 MSTORE PUSH1 0x24 PUSH1 0x0 REVERT JUMPDEST POP DIV SWAP1 JUMP JUMPDEST DUP1 DUP3 ADD DUP1 DUP3 GT ISZERO PUSH2 0x97A JUMPI PUSH2 0x97A PUSH2 0xC40 JUMP INVALID LOG2 PUSH5 0x6970667358 0x22 SLT KECCAK256 PUSH15 0x87499C36FA848A38AE506E9C94448A PUSH23 0x93E9270884F1E6B42A55D5969A190464736F6C63430008 EQ STOP CALLER "},"methodIdentifiers":{"MOCK_LIQUIDITY()":"de3b22fb","MOCK_SLIPPAGE()":"86c476d2","WETH()":"ad5c4648","addLiquidityETH(address,uint256,uint256,uint256,address,uint256)":"f305d719","factory()":"c45a0155","getAmountsIn(uint256,address[])":"1f00ca74","getAmountsOut(uint256,address[])":"d06ca61f","getTokenPrice(address)":"d02641a0","recoverTokens(address,uint256)":"069c9fae","setTokenPrice(address,uint256)":"431f63c9","swapExactTokensForETHSupportingFeeOnTransferTokens(uint256,uint256,address[],address,uint256)":"791ac947","tokenPrices(address)":"204120bc"}}}}}