{
  "_format": "hh-sol-artifact-1",
  "contractName": "TeamToken",
  "sourceName": "contracts/ODDProxy.sol",
  "abi": [
    {
      "inputs": [
        {
          "internalType": "address",
          "name": "_originalToken",
          "type": "address"
        },
        {
          "internalType": "address",
          "name": "_uniswapRouter",
          "type": "address"
        },
        {
          "internalType": "address",
          "name": "_motherWallet",
          "type": "address"
        },
        {
          "internalType": "address",
          "name": "_liquidityWallet",
          "type": "address"
        },
        {
          "internalType": "address",
          "name": "_priceFeed",
          "type": "address"
        }
      ],
      "stateMutability": "nonpayable",
      "type": "constructor"
    },
    {
      "anonymous": false,
      "inputs": [
        {
          "indexed": true,
          "internalType": "address",
          "name": "owner",
          "type": "address"
        },
        {
          "indexed": true,
          "internalType": "address",
          "name": "spender",
          "type": "address"
        },
        {
          "indexed": false,
          "internalType": "uint256",
          "name": "value",
          "type": "uint256"
        }
      ],
      "name": "Approval",
      "type": "event"
    },
    {
      "anonymous": false,
      "inputs": [
        {
          "indexed": false,
          "internalType": "uint256",
          "name": "tokensSwapped",
          "type": "uint256"
        },
        {
          "indexed": false,
          "internalType": "uint256",
          "name": "bnbReceived",
          "type": "uint256"
        },
        {
          "indexed": false,
          "internalType": "uint256",
          "name": "tokensAdded",
          "type": "uint256"
        }
      ],
      "name": "AutoLiquidityTriggered",
      "type": "event"
    },
    {
      "anonymous": false,
      "inputs": [
        {
          "indexed": true,
          "internalType": "address",
          "name": "holder",
          "type": "address"
        },
        {
          "indexed": false,
          "internalType": "uint256",
          "name": "amount",
          "type": "uint256"
        }
      ],
      "name": "BalanceMapped",
      "type": "event"
    },
    {
      "anonymous": false,
      "inputs": [
        {
          "indexed": true,
          "internalType": "address",
          "name": "account",
          "type": "address"
        },
        {
          "indexed": false,
          "internalType": "bool",
          "name": "excluded",
          "type": "bool"
        }
      ],
      "name": "ExcludedFromAutoLiquidity",
      "type": "event"
    },
    {
      "anonymous": false,
      "inputs": [
        {
          "indexed": true,
          "internalType": "address",
          "name": "account",
          "type": "address"
        },
        {
          "indexed": false,
          "internalType": "bool",
          "name": "excluded",
          "type": "bool"
        }
      ],
      "name": "ExcludedFromFee",
      "type": "event"
    },
    {
      "anonymous": false,
      "inputs": [
        {
          "indexed": false,
          "internalType": "uint256",
          "name": "transferFee",
          "type": "uint256"
        },
        {
          "indexed": false,
          "internalType": "uint256",
          "name": "liquidityFee",
          "type": "uint256"
        }
      ],
      "name": "FeesUpdated",
      "type": "event"
    },
    {
      "anonymous": false,
      "inputs": [
        {
          "indexed": false,
          "internalType": "string",
          "name": "newLogoURI",
          "type": "string"
        }
      ],
      "name": "LogoURIUpdated",
      "type": "event"
    },
    {
      "anonymous": false,
      "inputs": [
        {
          "indexed": false,
          "internalType": "uint256",
          "name": "totalMappedBalance",
          "type": "uint256"
        }
      ],
      "name": "MappingCompleted",
      "type": "event"
    },
    {
      "anonymous": false,
      "inputs": [
        {
          "indexed": false,
          "internalType": "string",
          "name": "newMetadataURI",
          "type": "string"
        }
      ],
      "name": "MetadataURIUpdated",
      "type": "event"
    },
    {
      "anonymous": false,
      "inputs": [
        {
          "indexed": false,
          "internalType": "uint256",
          "name": "minTokensBeforeSwap",
          "type": "uint256"
        }
      ],
      "name": "MinTokensBeforeSwapUpdated",
      "type": "event"
    },
    {
      "anonymous": false,
      "inputs": [
        {
          "indexed": true,
          "internalType": "address",
          "name": "previousOwner",
          "type": "address"
        },
        {
          "indexed": true,
          "internalType": "address",
          "name": "newOwner",
          "type": "address"
        }
      ],
      "name": "OwnershipTransferred",
      "type": "event"
    },
    {
      "anonymous": false,
      "inputs": [
        {
          "indexed": false,
          "internalType": "address",
          "name": "account",
          "type": "address"
        }
      ],
      "name": "Paused",
      "type": "event"
    },
    {
      "anonymous": false,
      "inputs": [
        {
          "indexed": false,
          "internalType": "address",
          "name": "token",
          "type": "address"
        },
        {
          "indexed": false,
          "internalType": "uint256",
          "name": "amount",
          "type": "uint256"
        }
      ],
      "name": "TokensRecovered",
      "type": "event"
    },
    {
      "anonymous": false,
      "inputs": [
        {
          "indexed": true,
          "internalType": "address",
          "name": "from",
          "type": "address"
        },
        {
          "indexed": true,
          "internalType": "address",
          "name": "to",
          "type": "address"
        },
        {
          "indexed": false,
          "internalType": "uint256",
          "name": "value",
          "type": "uint256"
        }
      ],
      "name": "Transfer",
      "type": "event"
    },
    {
      "anonymous": false,
      "inputs": [
        {
          "indexed": false,
          "internalType": "address",
          "name": "account",
          "type": "address"
        }
      ],
      "name": "Unpaused",
      "type": "event"
    },
    {
      "anonymous": false,
      "inputs": [
        {
          "indexed": false,
          "internalType": "address",
          "name": "motherWallet",
          "type": "address"
        },
        {
          "indexed": false,
          "internalType": "address",
          "name": "liquidityWallet",
          "type": "address"
        }
      ],
      "name": "WalletsUpdated",
      "type": "event"
    },
    {
      "inputs": [],
      "name": "FEE_DENOMINATOR",
      "outputs": [
        {
          "internalType": "uint256",
          "name": "",
          "type": "uint256"
        }
      ],
      "stateMutability": "view",
      "type": "function"
    },
    {
      "inputs": [],
      "name": "FIXED_SUPPLY",
      "outputs": [
        {
          "internalType": "uint256",
          "name": "",
          "type": "uint256"
        }
      ],
      "stateMutability": "view",
      "type": "function"
    },
    {
      "inputs": [],
      "name": "MAX_FEE",
      "outputs": [
        {
          "internalType": "uint256",
          "name": "",
          "type": "uint256"
        }
      ],
      "stateMutability": "view",
      "type": "function"
    },
    {
      "inputs": [],
      "name": "ORIGINAL_TOKEN",
      "outputs": [
        {
          "internalType": "address",
          "name": "",
          "type": "address"
        }
      ],
      "stateMutability": "view",
      "type": "function"
    },
    {
      "inputs": [],
      "name": "UNISWAP_ROUTER",
      "outputs": [
        {
          "internalType": "address",
          "name": "",
          "type": "address"
        }
      ],
      "stateMutability": "view",
      "type": "function"
    },
    {
      "inputs": [
        {
          "internalType": "address",
          "name": "owner",
          "type": "address"
        },
        {
          "internalType": "address",
          "name": "spender",
          "type": "address"
        }
      ],
      "name": "allowance",
      "outputs": [
        {
          "internalType": "uint256",
          "name": "",
          "type": "uint256"
        }
      ],
      "stateMutability": "view",
      "type": "function"
    },
    {
      "inputs": [
        {
          "internalType": "address",
          "name": "spender",
          "type": "address"
        },
        {
          "internalType": "uint256",
          "name": "amount",
          "type": "uint256"
        }
      ],
      "name": "approve",
      "outputs": [
        {
          "internalType": "bool",
          "name": "",
          "type": "bool"
        }
      ],
      "stateMutability": "nonpayable",
      "type": "function"
    },
    {
      "inputs": [
        {
          "internalType": "address",
          "name": "account",
          "type": "address"
        }
      ],
      "name": "balanceOf",
      "outputs": [
        {
          "internalType": "uint256",
          "name": "",
          "type": "uint256"
        }
      ],
      "stateMutability": "view",
      "type": "function"
    },
    {
      "inputs": [],
      "name": "createLiquidityPair",
      "outputs": [],
      "stateMutability": "nonpayable",
      "type": "function"
    },
    {
      "inputs": [],
      "name": "decimals",
      "outputs": [
        {
          "internalType": "uint8",
          "name": "",
          "type": "uint8"
        }
      ],
      "stateMutability": "pure",
      "type": "function"
    },
    {
      "inputs": [
        {
          "internalType": "address",
          "name": "spender",
          "type": "address"
        },
        {
          "internalType": "uint256",
          "name": "subtractedValue",
          "type": "uint256"
        }
      ],
      "name": "decreaseAllowance",
      "outputs": [
        {
          "internalType": "bool",
          "name": "",
          "type": "bool"
        }
      ],
      "stateMutability": "nonpayable",
      "type": "function"
    },
    {
      "inputs": [],
      "name": "getLatestPrice",
      "outputs": [
        {
          "internalType": "int256",
          "name": "",
          "type": "int256"
        }
      ],
      "stateMutability": "view",
      "type": "function"
    },
    {
      "inputs": [
        {
          "internalType": "address",
          "name": "account",
          "type": "address"
        }
      ],
      "name": "getMappedBalance",
      "outputs": [
        {
          "internalType": "uint256",
          "name": "",
          "type": "uint256"
        }
      ],
      "stateMutability": "view",
      "type": "function"
    },
    {
      "inputs": [
        {
          "internalType": "uint256",
          "name": "amount",
          "type": "uint256"
        }
      ],
      "name": "getOriginalTokenUSDValue",
      "outputs": [
        {
          "internalType": "uint256",
          "name": "",
          "type": "uint256"
        }
      ],
      "stateMutability": "view",
      "type": "function"
    },
    {
      "inputs": [
        {
          "internalType": "uint256",
          "name": "usdValue",
          "type": "uint256"
        }
      ],
      "name": "getProxyTokenAmount",
      "outputs": [
        {
          "internalType": "uint256",
          "name": "",
          "type": "uint256"
        }
      ],
      "stateMutability": "view",
      "type": "function"
    },
    {
      "inputs": [
        {
          "internalType": "address",
          "name": "spender",
          "type": "address"
        },
        {
          "internalType": "uint256",
          "name": "addedValue",
          "type": "uint256"
        }
      ],
      "name": "increaseAllowance",
      "outputs": [
        {
          "internalType": "bool",
          "name": "",
          "type": "bool"
        }
      ],
      "stateMutability": "nonpayable",
      "type": "function"
    },
    {
      "inputs": [
        {
          "internalType": "address",
          "name": "account",
          "type": "address"
        }
      ],
      "name": "isExcludedFromAutoLiquidity",
      "outputs": [
        {
          "internalType": "bool",
          "name": "",
          "type": "bool"
        }
      ],
      "stateMutability": "view",
      "type": "function"
    },
    {
      "inputs": [
        {
          "internalType": "address",
          "name": "account",
          "type": "address"
        }
      ],
      "name": "isExcludedFromFee",
      "outputs": [
        {
          "internalType": "bool",
          "name": "",
          "type": "bool"
        }
      ],
      "stateMutability": "view",
      "type": "function"
    },
    {
      "inputs": [],
      "name": "liquidityFee",
      "outputs": [
        {
          "internalType": "uint256",
          "name": "",
          "type": "uint256"
        }
      ],
      "stateMutability": "view",
      "type": "function"
    },
    {
      "inputs": [],
      "name": "liquidityWallet",
      "outputs": [
        {
          "internalType": "address",
          "name": "",
          "type": "address"
        }
      ],
      "stateMutability": "view",
      "type": "function"
    },
    {
      "inputs": [],
      "name": "logoURI",
      "outputs": [
        {
          "internalType": "string",
          "name": "",
          "type": "string"
        }
      ],
      "stateMutability": "view",
      "type": "function"
    },
    {
      "inputs": [
        {
          "internalType": "address[]",
          "name": "holders",
          "type": "address[]"
        }
      ],
      "name": "mapBalances",
      "outputs": [],
      "stateMutability": "nonpayable",
      "type": "function"
    },
    {
      "inputs": [],
      "name": "mappingCompleted",
      "outputs": [
        {
          "internalType": "bool",
          "name": "",
          "type": "bool"
        }
      ],
      "stateMutability": "view",
      "type": "function"
    },
    {
      "inputs": [],
      "name": "metadataURI",
      "outputs": [
        {
          "internalType": "string",
          "name": "",
          "type": "string"
        }
      ],
      "stateMutability": "view",
      "type": "function"
    },
    {
      "inputs": [],
      "name": "minTokensBeforeSwap",
      "outputs": [
        {
          "internalType": "uint256",
          "name": "",
          "type": "uint256"
        }
      ],
      "stateMutability": "view",
      "type": "function"
    },
    {
      "inputs": [],
      "name": "motherWallet",
      "outputs": [
        {
          "internalType": "address",
          "name": "",
          "type": "address"
        }
      ],
      "stateMutability": "view",
      "type": "function"
    },
    {
      "inputs": [],
      "name": "name",
      "outputs": [
        {
          "internalType": "string",
          "name": "",
          "type": "string"
        }
      ],
      "stateMutability": "pure",
      "type": "function"
    },
    {
      "inputs": [],
      "name": "originalToken",
      "outputs": [
        {
          "internalType": "contract IERC20",
          "name": "",
          "type": "address"
        }
      ],
      "stateMutability": "view",
      "type": "function"
    },
    {
      "inputs": [],
      "name": "owner",
      "outputs": [
        {
          "internalType": "address",
          "name": "",
          "type": "address"
        }
      ],
      "stateMutability": "view",
      "type": "function"
    },
    {
      "inputs": [],
      "name": "pause",
      "outputs": [],
      "stateMutability": "nonpayable",
      "type": "function"
    },
    {
      "inputs": [],
      "name": "paused",
      "outputs": [
        {
          "internalType": "bool",
          "name": "",
          "type": "bool"
        }
      ],
      "stateMutability": "view",
      "type": "function"
    },
    {
      "inputs": [],
      "name": "priceFeed",
      "outputs": [
        {
          "internalType": "contract AggregatorV3Interface",
          "name": "",
          "type": "address"
        }
      ],
      "stateMutability": "view",
      "type": "function"
    },
    {
      "inputs": [],
      "name": "recoverBNB",
      "outputs": [],
      "stateMutability": "nonpayable",
      "type": "function"
    },
    {
      "inputs": [
        {
          "internalType": "address",
          "name": "token",
          "type": "address"
        },
        {
          "internalType": "uint256",
          "name": "amount",
          "type": "uint256"
        }
      ],
      "name": "recoverTokens",
      "outputs": [],
      "stateMutability": "nonpayable",
      "type": "function"
    },
    {
      "inputs": [],
      "name": "renounceOwnership",
      "outputs": [],
      "stateMutability": "nonpayable",
      "type": "function"
    },
    {
      "inputs": [],
      "name": "resetMapping",
      "outputs": [],
      "stateMutability": "nonpayable",
      "type": "function"
    },
    {
      "inputs": [
        {
          "internalType": "address",
          "name": "account",
          "type": "address"
        },
        {
          "internalType": "bool",
          "name": "excluded",
          "type": "bool"
        }
      ],
      "name": "setExcludedFromAutoLiquidity",
      "outputs": [],
      "stateMutability": "nonpayable",
      "type": "function"
    },
    {
      "inputs": [
        {
          "internalType": "address",
          "name": "account",
          "type": "address"
        },
        {
          "internalType": "bool",
          "name": "excluded",
          "type": "bool"
        }
      ],
      "name": "setExcludedFromFee",
      "outputs": [],
      "stateMutability": "nonpayable",
      "type": "function"
    },
    {
      "inputs": [],
      "name": "symbol",
      "outputs": [
        {
          "internalType": "string",
          "name": "",
          "type": "string"
        }
      ],
      "stateMutability": "pure",
      "type": "function"
    },
    {
      "inputs": [],
      "name": "totalMappedBalance",
      "outputs": [
        {
          "internalType": "uint256",
          "name": "",
          "type": "uint256"
        }
      ],
      "stateMutability": "view",
      "type": "function"
    },
    {
      "inputs": [],
      "name": "totalSupply",
      "outputs": [
        {
          "internalType": "uint256",
          "name": "",
          "type": "uint256"
        }
      ],
      "stateMutability": "pure",
      "type": "function"
    },
    {
      "inputs": [
        {
          "internalType": "address",
          "name": "recipient",
          "type": "address"
        },
        {
          "internalType": "uint256",
          "name": "amount",
          "type": "uint256"
        }
      ],
      "name": "transfer",
      "outputs": [
        {
          "internalType": "bool",
          "name": "",
          "type": "bool"
        }
      ],
      "stateMutability": "nonpayable",
      "type": "function"
    },
    {
      "inputs": [],
      "name": "transferFee",
      "outputs": [
        {
          "internalType": "uint256",
          "name": "",
          "type": "uint256"
        }
      ],
      "stateMutability": "view",
      "type": "function"
    },
    {
      "inputs": [
        {
          "internalType": "address",
          "name": "sender",
          "type": "address"
        },
        {
          "internalType": "address",
          "name": "recipient",
          "type": "address"
        },
        {
          "internalType": "uint256",
          "name": "amount",
          "type": "uint256"
        }
      ],
      "name": "transferFrom",
      "outputs": [
        {
          "internalType": "bool",
          "name": "",
          "type": "bool"
        }
      ],
      "stateMutability": "nonpayable",
      "type": "function"
    },
    {
      "inputs": [
        {
          "internalType": "address",
          "name": "newOwner",
          "type": "address"
        }
      ],
      "name": "transferOwnership",
      "outputs": [],
      "stateMutability": "nonpayable",
      "type": "function"
    },
    {
      "inputs": [],
      "name": "uniswapFactory",
      "outputs": [
        {
          "internalType": "contract IUniswapV2Factory",
          "name": "",
          "type": "address"
        }
      ],
      "stateMutability": "view",
      "type": "function"
    },
    {
      "inputs": [],
      "name": "uniswapPair",
      "outputs": [
        {
          "internalType": "address",
          "name": "",
          "type": "address"
        }
      ],
      "stateMutability": "view",
      "type": "function"
    },
    {
      "inputs": [],
      "name": "uniswapRouter",
      "outputs": [
        {
          "internalType": "contract IUniswapV2Router",
          "name": "",
          "type": "address"
        }
      ],
      "stateMutability": "view",
      "type": "function"
    },
    {
      "inputs": [],
      "name": "unpause",
      "outputs": [],
      "stateMutability": "nonpayable",
      "type": "function"
    },
    {
      "inputs": [
        {
          "internalType": "uint256",
          "name": "_transferFee",
          "type": "uint256"
        },
        {
          "internalType": "uint256",
          "name": "_liquidityFee",
          "type": "uint256"
        }
      ],
      "name": "updateFees",
      "outputs": [],
      "stateMutability": "nonpayable",
      "type": "function"
    },
    {
      "inputs": [
        {
          "internalType": "string",
          "name": "_logoURI",
          "type": "string"
        }
      ],
      "name": "updateLogoURI",
      "outputs": [],
      "stateMutability": "nonpayable",
      "type": "function"
    },
    {
      "inputs": [
        {
          "internalType": "string",
          "name": "_metadataURI",
          "type": "string"
        }
      ],
      "name": "updateMetadataURI",
      "outputs": [],
      "stateMutability": "nonpayable",
      "type": "function"
    },
    {
      "inputs": [
        {
          "internalType": "uint256",
          "name": "_minTokensBeforeSwap",
          "type": "uint256"
        }
      ],
      "name": "updateMinTokensBeforeSwap",
      "outputs": [],
      "stateMutability": "nonpayable",
      "type": "function"
    },
    {
      "inputs": [
        {
          "internalType": "address",
          "name": "_motherWallet",
          "type": "address"
        },
        {
          "internalType": "address",
          "name": "_liquidityWallet",
          "type": "address"
        }
      ],
      "name": "updateWallets",
      "outputs": [],
      "stateMutability": "nonpayable",
      "type": "function"
    },
    {
      "stateMutability": "payable",
      "type": "receive"
    }
  ],
  "bytecode": "0x6064600c556032600d55683635c9adc5dea00000601255610100604052602e60a081815290620036c360c0396017906200003a908262000614565b506040518060800160405280604481526020016200367f6044913960189062000064908262000614565b503480156200007257600080fd5b50604051620036f1380380620036f18339810160408190526200009591620006fd565b6040518060400160405280601881526020017f546574686572205553442042726964676564205a454432300000000000000000815250604051806040016040528060068152602001652aa9a22a173d60d11b8152508160039081620000fb919062000614565b5060046200010a828262000614565b50505062000127620001216200051960201b60201c565b6200051d565b60016006556007805460ff191690556001600160a01b038516620001a05760405162461bcd60e51b815260206004820152602560248201527f4f726967696e616c20746f6b656e2063616e6e6f74206265207a65726f206164604482015264647265737360d81b60648201526084015b60405180910390fd5b6001600160a01b038416620001f85760405162461bcd60e51b815260206004820152601d60248201527f526f757465722063616e6e6f74206265207a65726f2061646472657373000000604482015260640162000197565b6001600160a01b0383166200025c5760405162461bcd60e51b8152602060048201526024808201527f4d6f746865722077616c6c65742063616e6e6f74206265207a65726f206164646044820152637265737360e01b606482015260840162000197565b6001600160a01b038216620002c45760405162461bcd60e51b815260206004820152602760248201527f4c69717569646974792077616c6c65742063616e6e6f74206265207a65726f206044820152666164647265737360c81b606482015260840162000197565b6001600160a01b038116620003265760405162461bcd60e51b815260206004820152602160248201527f507269636520666565642063616e6e6f74206265207a65726f206164647265736044820152607360f81b606482015260840162000197565b6001600160a01b03858116608081905260078054610100600160a81b031916610100909202919091179055600880546001600160a01b03191691861691821790556040805163c45a015560e01b8152905163c45a0155916004808201926020929091908290030181865afa158015620003a3573d6000803e3d6000fd5b505050506040513d601f19601f82011682018060405250810190620003c991906200076d565b600980546001600160a01b03199081166001600160a01b0393841617909155600e80548216868416179055600f80548216858416179055600a8054909116918316919091179055600160146000620004296005546001600160a01b031690565b6001600160a01b03908116825260208083019390935260409182016000908120805495151560ff19968716179055878216815260149093528183208054851660019081179091559086168352818320805485168217905530835290822080549093168117909255601590620004a66005546001600160a01b031690565b6001600160a01b03908116825260208083019390935260409182016000908120805495151560ff1996871617905596811687526015909252808620805484166001908117909155949091168552808520805483168517905530855290932080549093169091179091555062000792915050565b3390565b600580546001600160a01b038381166001600160a01b0319831681179093556040519116919082907f8be0079c531659141344cd1fd0a4f28419497f9722a3daafe3b4186f6b6457e090600090a35050565b634e487b7160e01b600052604160045260246000fd5b600181811c908216806200059a57607f821691505b602082108103620005bb57634e487b7160e01b600052602260045260246000fd5b50919050565b601f8211156200060f57600081815260208120601f850160051c81016020861015620005ea5750805b601f850160051c820191505b818110156200060b57828155600101620005f6565b5050505b505050565b81516001600160401b038111156200063057620006306200056f565b620006488162000641845462000585565b84620005c1565b602080601f831160018114620006805760008415620006675750858301515b600019600386901b1c1916600185901b1785556200060b565b600085815260208120601f198616915b82811015620006b15788860151825594840194600190910190840162000690565b5085821015620006d05787850151600019600388901b60f8161c191681555b5050505050600190811b01905550565b80516001600160a01b0381168114620006f857600080fd5b919050565b600080600080600060a086880312156200071657600080fd5b6200072186620006e0565b94506200073160208701620006e0565b93506200074160408701620006e0565b92506200075160608701620006e0565b91506200076160808701620006e0565b90509295509295909350565b6000602082840312156200078057600080fd5b6200078b82620006e0565b9392505050565b608051612eca620007b5600039600081816106e4015261150b0152612eca6000f3fe6080604052600436106103395760003560e01c80636bfdf8a0116101ab578063a9059cbb116100f7578063d469801611610095578063dd62ed3e1161006f578063dd62ed3e146109ca578063e5d41c6b146109ea578063e8ba854f14610a00578063f2fde38b14610a2057600080fd5b8063d46980161461096c578063d73792a91461098c578063d8264920146109a257600080fd5b8063c1a68121116100d1578063c1a68121146108de578063c816841b14610917578063c969943e14610937578063cba025a71461095757600080fd5b8063a9059cbb14610892578063acb2ad6f146108b2578063bc063e1a146108c857600080fd5b80638456cb59116101645780638e15f4731161013e5780638e15f4731461081857806395d89b411461082d57806398118cb41461085c578063a457c2d71461087257600080fd5b80638456cb59146107c55780638bdb2afa146107da5780638da5cb5b146107fa57600080fd5b80636bfdf8a01461071b5780636db794371461073057806370a0823114610750578063715018a614610770578063735de9f714610785578063741bef1a146107a557600080fd5b806335172278116102855780635be7a77f1161022357806363879c09116101fd57806363879c09146106925780636612e66f146106b257806367f630ab146106d25780636bb38b281461070657600080fd5b80635be7a77f1461063a5780635c975abb1461065a5780635d83b4541461067257600080fd5b8063403d0a051161025f578063403d0a051461058b5780634f907a3a146105ab5780635342acb4146105e157806353fd3e811461061a57600080fd5b8063351722781461054057806339509351146105565780633f4ba83a1461057657600080fd5b806318160ddd116102f25780632896a77d116102cc5780632896a77d146104cf57806328f99f93146104e45780632b4c8ec014610504578063313ce5671461052457600080fd5b806318160ddd1461046557806323b872dd1461048e57806324d8a317146104ae57600080fd5b806303ee438c14610345578063069c9fae1461037057806306fdde0314610392578063095ea7b3146103d85780630e7c1cb514610408578063143dacc51461044557600080fd5b3661034057005b600080fd5b34801561035157600080fd5b5061035a610a40565b604051610367919061278c565b60405180910390f35b34801561037c57600080fd5b5061039061038b3660046127ef565b610ace565b005b34801561039e57600080fd5b5060408051808201909152601881527f546574686572205553442042726964676564205a454432300000000000000000602082015261035a565b3480156103e457600080fd5b506103f86103f33660046127ef565b610c0d565b6040519015158152602001610367565b34801561041457600080fd5b5060075461042d9061010090046001600160a01b031681565b6040516001600160a01b039091168152602001610367565b34801561045157600080fd5b50600e5461042d906001600160a01b031681565b34801561047157600080fd5b506b58db77832ae5c68aec0000005b604051908152602001610367565b34801561049a57600080fd5b506103f86104a936600461281b565b610c2c565b3480156104ba57600080fd5b50600f546103f890600160a01b900460ff1681565b3480156104db57600080fd5b50610390610d36565b3480156104f057600080fd5b506103906104ff36600461285c565b610fc1565b34801561051057600080fd5b5061039061051f3660046128d1565b61128c565b34801561053057600080fd5b5060405160128152602001610367565b34801561054c57600080fd5b5061048060105481565b34801561056257600080fd5b506103f86105713660046127ef565b6112d0565b34801561058257600080fd5b506103906112f7565b34801561059757600080fd5b506104806105a63660046128d1565b611307565b3480156105b757600080fd5b506104806105c63660046128ea565b6001600160a01b031660009081526013602052604090205490565b3480156105ed57600080fd5b506103f86105fc3660046128ea565b6001600160a01b031660009081526014602052604090205460ff1690565b34801561062657600080fd5b5061039061063536600461294e565b611492565b34801561064657600080fd5b506104806106553660046128d1565b6114d6565b34801561066657600080fd5b5060075460ff166103f8565b34801561067e57600080fd5b5061039061068d3660046129f1565b61166a565b34801561069e57600080fd5b506103906106ad36600461294e565b6116d2565b3480156106be57600080fd5b506103906106cd3660046129f1565b611716565b3480156106de57600080fd5b5061042d7f000000000000000000000000000000000000000000000000000000000000000081565b34801561071257600080fd5b5061035a611776565b34801561072757600080fd5b50610390611783565b34801561073c57600080fd5b5061039061074b366004612a2a565b61180b565b34801561075c57600080fd5b5061048061076b3660046128ea565b6118e7565b34801561077c57600080fd5b506103906119d2565b34801561079157600080fd5b5060085461042d906001600160a01b031681565b3480156107b157600080fd5b50600a5461042d906001600160a01b031681565b3480156107d157600080fd5b506103906119e4565b3480156107e657600080fd5b5060095461042d906001600160a01b031681565b34801561080657600080fd5b506005546001600160a01b031661042d565b34801561082457600080fd5b506104806119f4565b34801561083957600080fd5b506040805180820190915260068152652aa9a22a173d60d11b602082015261035a565b34801561086857600080fd5b50610480600d5481565b34801561087e57600080fd5b506103f861088d3660046127ef565b611a79565b34801561089e57600080fd5b506103f86108ad3660046127ef565b611af4565b3480156108be57600080fd5b50610480600c5481565b3480156108d457600080fd5b506104806101f481565b3480156108ea57600080fd5b506103f86108f93660046128ea565b6001600160a01b031660009081526015602052604090205460ff1690565b34801561092357600080fd5b50600b5461042d906001600160a01b031681565b34801561094357600080fd5b506104806b58db77832ae5c68aec00000081565b34801561096357600080fd5b50610390611b5a565b34801561097857600080fd5b50600f5461042d906001600160a01b031681565b34801561099857600080fd5b5061048061271081565b3480156109ae57600080fd5b5061042d739ac64cc6e4415144c455bd8e4837fea55603e5c381565b3480156109d657600080fd5b506104806109e5366004612a4c565b611bac565b3480156109f657600080fd5b5061048060125481565b348015610a0c57600080fd5b50610390610a1b366004612a4c565b611bd7565b348015610a2c57600080fd5b50610390610a3b3660046128ea565b611d0e565b60188054610a4d90612a7a565b80601f0160208091040260200160405190810160405280929190818152602001828054610a7990612a7a565b8015610ac65780601f10610a9b57610100808354040283529160200191610ac6565b820191906000526020600020905b815481529060010190602001808311610aa957829003601f168201915b505050505081565b610ad6611d87565b306001600160a01b03831603610b335760405162461bcd60e51b815260206004820152601a60248201527f43616e6e6f74207265636f7665722070726f787920746f6b656e00000000000060448201526064015b60405180910390fd5b816001600160a01b031663a9059cbb610b546005546001600160a01b031690565b6040516001600160e01b031960e084901b1681526001600160a01b039091166004820152602481018490526044016020604051808303816000875af1158015610ba1573d6000803e3d6000fd5b505050506040513d601f19601f82011682018060405250810190610bc59190612aae565b50604080516001600160a01b0384168152602081018390527f46d2e6e71fc567877b817ff3d940571f989d4ee4d40f2b70806d36e738feef6f91015b60405180910390a15050565b6000610c17611de1565b610c22338484611e27565b5060015b92915050565b6000610c36611de1565b600f54600160a01b900460ff16610c875760405162461bcd60e51b815260206004820152601560248201527413585c1c1a5b99c81b9bdd0818dbdb5c1b195d1959605a1b6044820152606401610b2a565b610c92848484611f4b565b6001600160a01b038416600090815260166020908152604080832033845290915290205482811015610d175760405162461bcd60e51b815260206004820152602860248201527f45524332303a207472616e7366657220616d6f756e74206578636565647320616044820152676c6c6f77616e636560c01b6064820152608401610b2a565b610d2b8533610d268685612ae1565b611e27565b506001949350505050565b610d3e611d87565b600b546001600160a01b031615610d8e5760405162461bcd60e51b815260206004820152601460248201527314185a5c88185b1c9958591e4818dc99585d195960621b6044820152606401610b2a565b600954600854604080516315ab88c960e31b815290516000936001600160a01b039081169363e6a43905933093919092169163ad5c46489160048083019260209291908290030181865afa158015610dea573d6000803e3d6000fd5b505050506040513d601f19601f82011682018060405250810190610e0e9190612af4565b6040516001600160e01b031960e085901b1681526001600160a01b03928316600482015291166024820152604401602060405180830381865afa158015610e59573d6000803e3d6000fd5b505050506040513d601f19601f82011682018060405250810190610e7d9190612af4565b90506001600160a01b03811615610eb057600b80546001600160a01b0319166001600160a01b0392909216919091179055565b600954600854604080516315ab88c960e31b815290516001600160a01b039384169363c9c6539693309391169163ad5c4648916004808201926020929091908290030181865afa158015610f08573d6000803e3d6000fd5b505050506040513d601f19601f82011682018060405250810190610f2c9190612af4565b6040516001600160e01b031960e085901b1681526001600160a01b039283166004820152911660248201526044016020604051808303816000875af1158015610f79573d6000803e3d6000fd5b505050506040513d601f19601f82011682018060405250810190610f9d9190612af4565b600b80546001600160a01b0319166001600160a01b0392909216919091179055505b565b610fc9611d87565b600f54600160a01b900460ff16156110235760405162461bcd60e51b815260206004820152601960248201527f4d617070696e6720616c726561647920636f6d706c65746564000000000000006044820152606401610b2a565b6000805b8281101561123457600084848381811061104357611043612b11565b905060200201602081019061105891906128ea565b6001600160a01b0316036110a75760405162461bcd60e51b8152602060048201526016602482015275496e76616c696420686f6c646572206164647265737360501b6044820152606401610b2a565b60075460009061010090046001600160a01b03166370a082318686858181106110d2576110d2612b11565b90506020020160208101906110e791906128ea565b6040516001600160e01b031960e084901b1681526001600160a01b039091166004820152602401602060405180830381865afa15801561112b573d6000803e3d6000fd5b505050506040513d601f19601f8201168201806040525081019061114f9190612b27565b9050801561122157600061116282612263565b9050806013600088888781811061117b5761117b612b11565b905060200201602081019061119091906128ea565b6001600160a01b031681526020810191909152604001600020556111b48185612b40565b93508585848181106111c8576111c8612b11565b90506020020160208101906111dd91906128ea565b6001600160a01b03167f69990ac53b4b4e6dd487ab20f49aae3e31f6bf61cda78c9d874dc25d4e22660b8260405161121791815260200190565b60405180910390a2505b508061122c81612b53565b915050611027565b50600f805460ff60a01b1916600160a01b17905560108190556040517fcdad8320e523344a5ae13a0433073dc8ddbeaa06ef3d412b479d16559f7b85159061127f9083815260200190565b60405180910390a1505050565b611294611d87565b60128190556040518181527f5948780118f41f7c4577ae4619d5cbd064057bd8562d9f7b7e60324053375c00906020015b60405180910390a150565b6000336112ed8185856112e38383611bac565b610d269190612b40565b5060019392505050565b6112ff611d87565b610fbf612279565b60008160000361131957506000919050565b604080516002808252606082018352600092602083019080368337019050509050308160008151811061134e5761134e612b11565b6001600160a01b03928316602091820292909201810191909152600854604080516315ab88c960e31b81529051919093169263ad5c46489260048083019391928290030181865afa1580156113a7573d6000803e3d6000fd5b505050506040513d601f19601f820116820180604052508101906113cb9190612af4565b816001815181106113de576113de612b11565b6001600160a01b0392831660209182029290920101526008546040516307c0329d60e21b8152911690631f00ca749061141d9086908590600401612bb0565b600060405180830381865afa92505050801561145b57506040513d6000823e601f3d908101601f191682016040526114589190810190612bd1565b60015b6114685750600092915050565b8060008151811061147b5761147b612b11565b602002602001015192505050919050565b50919050565b61149a611d87565b60186114a68282612cc2565b507fefafb90526da1636e1335eac0151301742fb755d986954c613b90e891778ba39816040516112c5919061278c565b6000816000036114e857506000919050565b6040805160028082526060820183526000926020830190803683370190505090507f00000000000000000000000000000000000000000000000000000000000000008160008151811061153d5761153d612b11565b6001600160a01b03928316602091820292909201810191909152600854604080516315ab88c960e31b81529051919093169263ad5c46489260048083019391928290030181865afa158015611596573d6000803e3d6000fd5b505050506040513d601f19601f820116820180604052508101906115ba9190612af4565b816001815181106115cd576115cd612b11565b6001600160a01b03928316602091820292909201015260085460405163d06ca61f60e01b815291169063d06ca61f9061160c9086908590600401612bb0565b600060405180830381865afa92505050801561164a57506040513d6000823e601f3d908101601f191682016040526116479190810190612bd1565b60015b6116575750600092915050565b8060018151811061147b5761147b612b11565b611672611d87565b6001600160a01b038216600081815260156020908152604091829020805460ff191685151590811790915591519182527fec283aef5cdefd5eabd800c6e2810f4d33798333061636e3349385f21544acb791015b60405180910390a25050565b6116da611d87565b60176116e68282612cc2565b507f45ce412de85908f7632af95be2a35e63e22470cd4dc9ddda81bbffca05e2814f816040516112c5919061278c565b61171e611d87565b6001600160a01b038216600081815260146020908152604091829020805460ff191685151590811790915591519182527f2d43abd87b27cee7b0aa8c6f7e0b4a3247b683262a83cbc2318b0df398a49aa991016116c6565b60178054610a4d90612a7a565b61178b611d87565b47806117cd5760405162461bcd60e51b8152602060048201526011602482015270273790212721103a37903932b1b7bb32b960791b6044820152606401610b2a565b6005546040516001600160a01b039091169082156108fc029083906000818181858888f19350505050158015611807573d6000803e3d6000fd5b5050565b611813611d87565b6101f482111561185d5760405162461bcd60e51b81526020600482015260156024820152740a8e4c2dce6cccae440cccaca40e8dede40d0d2ced605b1b6044820152606401610b2a565b60648111156118a75760405162461bcd60e51b8152602060048201526016602482015275098d2e2ead2c8d2e8f240cccaca40e8dede40d0d2ced60531b6044820152606401610b2a565b600c829055600d81905560408051838152602081018390527f5c6323bf1c2d7aaea2c091a4751c1c87af7f2864650c336507a77d0557af37a19101610c01565b600f54600090600160a01b900460ff1661190357506000919050565b6001600160a01b0382166000908152601360205260409020541561193d57506001600160a01b031660009081526013602052604090205490565b6007546040516370a0823160e01b81526001600160a01b038481166004830152600092610100900416906370a0823190602401602060405180830381865afa15801561198d573d6000803e3d6000fd5b505050506040513d601f19601f820116820180604052508101906119b19190612b27565b905080156119c9576119c281612263565b9392505050565b50600092915050565b6119da611d87565b610fbf60006122c6565b6119ec611d87565b610fbf612318565b600080600a60009054906101000a90046001600160a01b03166001600160a01b031663feaf968c6040518163ffffffff1660e01b815260040160a060405180830381865afa158015611a4a573d6000803e3d6000fd5b505050506040513d601f19601f82011682018060405250810190611a6e9190612da1565b509195945050505050565b60003381611a878286611bac565b905083811015611ae75760405162461bcd60e51b815260206004820152602560248201527f45524332303a2064656372656173656420616c6c6f77616e63652062656c6f77604482015264207a65726f60d81b6064820152608401610b2a565b610d2b8286868403611e27565b6000611afe611de1565b600f54600160a01b900460ff16611b4f5760405162461bcd60e51b815260206004820152601560248201527413585c1c1a5b99c81b9bdd0818dbdb5c1b195d1959605a1b6044820152606401610b2a565b610c22338484611f4b565b611b62611d87565b600f805460ff60a01b19169055600060108190556040519081527fcdad8320e523344a5ae13a0433073dc8ddbeaa06ef3d412b479d16559f7b8515906020015b60405180910390a1565b6001600160a01b03918216600090815260166020908152604080832093909416825291909152205490565b611bdf611d87565b6001600160a01b038216611c415760405162461bcd60e51b8152602060048201526024808201527f4d6f746865722077616c6c65742063616e6e6f74206265207a65726f206164646044820152637265737360e01b6064820152608401610b2a565b6001600160a01b038116611ca75760405162461bcd60e51b815260206004820152602760248201527f4c69717569646974792077616c6c65742063616e6e6f74206265207a65726f206044820152666164647265737360c81b6064820152608401610b2a565b600e80546001600160a01b038481166001600160a01b03199283168117909355600f80549185169190921681179091556040805192835260208301919091527f316af92955f23ddbd4c570a5f8cda8a10b192f24d8f58524deb2fcb03a8bc7949101610c01565b611d16611d87565b6001600160a01b038116611d7b5760405162461bcd60e51b815260206004820152602660248201527f4f776e61626c653a206e6577206f776e657220697320746865207a65726f206160448201526564647265737360d01b6064820152608401610b2a565b611d84816122c6565b50565b6005546001600160a01b03163314610fbf5760405162461bcd60e51b815260206004820181905260248201527f4f776e61626c653a2063616c6c6572206973206e6f7420746865206f776e65726044820152606401610b2a565b60075460ff1615610fbf5760405162461bcd60e51b815260206004820152601060248201526f14185d5cd8589b194e881c185d5cd95960821b6044820152606401610b2a565b6001600160a01b038316611e895760405162461bcd60e51b8152602060048201526024808201527f45524332303a20617070726f76652066726f6d20746865207a65726f206164646044820152637265737360e01b6064820152608401610b2a565b6001600160a01b038216611eea5760405162461bcd60e51b815260206004820152602260248201527f45524332303a20617070726f766520746f20746865207a65726f206164647265604482015261737360f01b6064820152608401610b2a565b6001600160a01b0383811660008181526016602090815260408083209487168084529482529182902085905590518481527f8c5be1e5ebec7d5bd14f71427d1e84f3dd0314c0f7b2291e5b200ac8c7c3b925910160405180910390a3505050565b611f53611de1565b6001600160a01b038316611fb75760405162461bcd60e51b815260206004820152602560248201527f45524332303a207472616e736665722066726f6d20746865207a65726f206164604482015264647265737360d81b6064820152608401610b2a565b6001600160a01b0382166120195760405162461bcd60e51b815260206004820152602360248201527f45524332303a207472616e7366657220746f20746865207a65726f206164647260448201526265737360e81b6064820152608401610b2a565b6000811161207b5760405162461bcd60e51b815260206004820152602960248201527f5472616e7366657220616d6f756e74206d7573742062652067726561746572206044820152687468616e207a65726f60b81b6064820152608401610b2a565b6000612086846118e7565b9050818110156120e75760405162461bcd60e51b815260206004820152602660248201527f45524332303a207472616e7366657220616d6f756e7420657863656564732062604482015265616c616e636560d01b6064820152608401610b2a565b600080600c5411801561211357506001600160a01b03851660009081526014602052604090205460ff16155b801561213857506001600160a01b03841660009081526014602052604090205460ff16155b1561215b57612710600c548461214e9190612df1565b6121589190612e08565b90505b60006121678285612ae1565b9050612193866121778686612ae1565b6001600160a01b03909116600090815260136020526040902055565b6121ab85826121a1886118e7565b6121779190612b40565b846001600160a01b0316866001600160a01b03167fddf252ad1be2c89b69c2b068fc378daa952ba7f163c4a11628f55a4df523b3ef836040516121f091815260200190565b60405180910390a38115612208576122088683612355565b60115460ff1615801561223457506001600160a01b03861660009081526015602052604090205460ff16155b801561224e5750600b546001600160a01b03878116911614155b1561225b5761225b612453565b505050505050565b60008160000361227557506000919050565b5090565b612281612472565b6007805460ff191690557f5db9ee0a495bf2e6ff9c91a7834c1ba4fdd244a5e8aa4e537bd38aeae4b073aa335b6040516001600160a01b039091168152602001611ba2565b600580546001600160a01b038381166001600160a01b0319831681179093556040519116919082907f8be0079c531659141344cd1fd0a4f28419497f9722a3daafe3b4186f6b6457e090600090a35050565b612320611de1565b6007805460ff191660011790557f62e78cea01bee320cd4e420270b5ea74000d11b0c9f74754ebdbfc544b05a2586122ae3390565b60006064600d54836123679190612df1565b6123719190612e08565b9050600061237f8284612ae1565b905080156123e757600e546123a1906001600160a01b0316826121a1826118e7565b600e546040518281526001600160a01b03918216918616907fddf252ad1be2c89b69c2b068fc378daa952ba7f163c4a11628f55a4df523b3ef9060200160405180910390a35b811561244d57600f54612407906001600160a01b0316836121a1826118e7565b600f546040518381526001600160a01b03918216918616907fddf252ad1be2c89b69c2b068fc378daa952ba7f163c4a11628f55a4df523b3ef9060200160405180910390a35b50505050565b600061245e306118e7565b90506012548110611d8457611d84816124bb565b60075460ff16610fbf5760405162461bcd60e51b815260206004820152601460248201527314185d5cd8589b194e881b9bdd081c185d5cd95960621b6044820152606401610b2a565b6011805460ff1916600117905560006124d5600283612e08565b905060006124e38284612ae1565b6040805160028082526060820183529293506000929091602083019080368337019050509050308160008151811061251d5761251d612b11565b6001600160a01b03928316602091820292909201810191909152600854604080516315ab88c960e31b81529051919093169263ad5c46489260048083019391928290030181865afa158015612576573d6000803e3d6000fd5b505050506040513d601f19601f8201168201806040525081019061259a9190612af4565b816001815181106125ad576125ad612b11565b6001600160a01b0392831660209182029290920101526008546125d39130911685611e27565b60085460405163791ac94760e01b815247916001600160a01b03169063791ac9479061260c908790600090879030904290600401612e2a565b600060405180830381600087803b15801561262657600080fd5b505af1925050508015612637575060015b1561277b5760006126488247612ae1565b6008549091506126639030906001600160a01b031686611e27565b600854600f5460405163f305d71960e01b81523060048201526024810187905260006044820181905260648201526001600160a01b0391821660848201524260a482015291169063f305d71990839060c40160606040518083038185885af1935050505080156126f0575060408051601f3d908101601f191682019092526126ed91810190612e66565b60015b61273457600f546040516001600160a01b039091169082156108fc029083906000818181858888f1935050505015801561272e573d6000803e3d6000fd5b50612779565b505060408051878152602081018490529081018690527fb0b14886dc5d756c41710f1e06f6846ccb515ac5bb1072e9315903162c129485915060600160405180910390a15b505b50506011805460ff19169055505050565b600060208083528351808285015260005b818110156127b95785810183015185820160400152820161279d565b506000604082860101526040601f19601f8301168501019250505092915050565b6001600160a01b0381168114611d8457600080fd5b6000806040838503121561280257600080fd5b823561280d816127da565b946020939093013593505050565b60008060006060848603121561283057600080fd5b833561283b816127da565b9250602084013561284b816127da565b929592945050506040919091013590565b6000806020838503121561286f57600080fd5b823567ffffffffffffffff8082111561288757600080fd5b818501915085601f83011261289b57600080fd5b8135818111156128aa57600080fd5b8660208260051b85010111156128bf57600080fd5b60209290920196919550909350505050565b6000602082840312156128e357600080fd5b5035919050565b6000602082840312156128fc57600080fd5b81356119c2816127da565b634e487b7160e01b600052604160045260246000fd5b604051601f8201601f1916810167ffffffffffffffff8111828210171561294657612946612907565b604052919050565b6000602080838503121561296157600080fd5b823567ffffffffffffffff8082111561297957600080fd5b818501915085601f83011261298d57600080fd5b81358181111561299f5761299f612907565b6129b1601f8201601f1916850161291d565b915080825286848285010111156129c757600080fd5b8084840185840137600090820190930192909252509392505050565b8015158114611d8457600080fd5b60008060408385031215612a0457600080fd5b8235612a0f816127da565b91506020830135612a1f816129e3565b809150509250929050565b60008060408385031215612a3d57600080fd5b50508035926020909101359150565b60008060408385031215612a5f57600080fd5b8235612a6a816127da565b91506020830135612a1f816127da565b600181811c90821680612a8e57607f821691505b60208210810361148c57634e487b7160e01b600052602260045260246000fd5b600060208284031215612ac057600080fd5b81516119c2816129e3565b634e487b7160e01b600052601160045260246000fd5b81810381811115610c2657610c26612acb565b600060208284031215612b0657600080fd5b81516119c2816127da565b634e487b7160e01b600052603260045260246000fd5b600060208284031215612b3957600080fd5b5051919050565b80820180821115610c2657610c26612acb565b600060018201612b6557612b65612acb565b5060010190565b600081518084526020808501945080840160005b83811015612ba55781516001600160a01b031687529582019590820190600101612b80565b509495945050505050565b828152604060208201526000612bc96040830184612b6c565b949350505050565b60006020808385031215612be457600080fd5b825167ffffffffffffffff80821115612bfc57600080fd5b818501915085601f830112612c1057600080fd5b815181811115612c2257612c22612907565b8060051b9150612c3384830161291d565b8181529183018401918481019088841115612c4d57600080fd5b938501935b83851015612c6b57845182529385019390850190612c52565b98975050505050505050565b601f821115612cbd57600081815260208120601f850160051c81016020861015612c9e5750805b601f850160051c820191505b8181101561225b57828155600101612caa565b505050565b815167ffffffffffffffff811115612cdc57612cdc612907565b612cf081612cea8454612a7a565b84612c77565b602080601f831160018114612d255760008415612d0d5750858301515b600019600386901b1c1916600185901b17855561225b565b600085815260208120601f198616915b82811015612d5457888601518255948401946001909101908401612d35565b5085821015612d725787850151600019600388901b60f8161c191681555b5050505050600190811b01905550565b805169ffffffffffffffffffff81168114612d9c57600080fd5b919050565b600080600080600060a08688031215612db957600080fd5b612dc286612d82565b9450602086015193506040860151925060608601519150612de560808701612d82565b90509295509295909350565b8082028115828204841417610c2657610c26612acb565b600082612e2557634e487b7160e01b600052601260045260246000fd5b500490565b85815284602082015260a060408201526000612e4960a0830186612b6c565b6001600160a01b0394909416606083015250608001529392505050565b600080600060608486031215612e7b57600080fd5b835192506020840151915060408401519050925092509256fea2646970667358221220dd311988cb16154fdca9986f9302e5c24677dd7594646599eb9240d51946cab064736f6c6343000814003368747470733a2f2f6273637363616e2e636f6d2f746f6b656e2f30783442453335456333323933343364376439463534386434324230463863313746466665303764623468747470733a2f2f6273637363616e2e636f6d2f746f6b656e2f696d616765732f757364747a735f33322e706e67",
  "linkReferences": {},
  "deployedLinkReferences": {}
}